:020000040800F2
:1030000000000120495D0008653C0008673C00089D
:10301000693C00086B3C00086D3C000800000000A3
:10302000000000000000000000000000713C0008EB
:103030006F3C000800000000733C0008753C00086D
:10304000793C00087B3C00087D3C00087F3C000880
:10305000813C0008833C0008853C0008873C000850
:10306000893C00088B3C00088D3C000800000000F3
:103070000000000000000000000000000000000050
:1030800000000000000000009D3C00089F3C00087C
:10309000A13C0008A33C0008A53C0008A73C000890
:1030A000A93C0008AB3C0008AD3C0008AF3C000860
:1030B000B13C0008B53C0008B73C0008B93C00082A
:1030C000BB3C0008BD3C0008BF3C0008C13C0008F8
:1030D000C33C0008C53C0008C93C0008CB3C0008C4
:1030E000CD3C0008CF3C0008D13C0008D33C000890
:1030F000D53C0008D73C0008D93C0008DB3C000860
:10310000DD3C0008DF3C0008E13C0008E33C00082F
:10311000E53C0008E73C0008E93C0008EB3C0008FF
:10312000ED3C0008EF3C0008F13C0008F33C0008CF
:043130005FF8000044
:1031340010B501F027FD4FF4803001F041FD01F09E
:103144008FFE012804460DD044F20800012101F04D
:1031540031FE1748012101F039FEBDE8104001207D
:1031640001F0B9BC102000F0CBFF022000F0B0FF4A
:10317400002001F073FD002001F084FD4FF4806015
:1031840001F076FD4FF480304FF4E01101F044FD7E
:10319400204601F04BFD392001F04EFE0028FAD004
:1031A400022001F049FD01F051FD0828FBD1CBE7D5
:1031B4000100040037B54FF440514FF0006001F0B6
:1031C400CBFB4FF4A06001F021FB00250124252353
:1031D40001A88DF804308DF805508DF806508DF84F
:1031E400074001F01DFB1C2301A88DF804308DF865
:1031F40005408DF806508DF8074001F011FB03B02F
:1032040030BDF7B51E4C01A801F04DFA0426302359
:1032140003271025204601A9ADF804308DF8067067
:103224008DF8075001F0F1F94FF4086320460DEBD7
:103234000601ADF804308DF8076001F0E6F94FF4AB
:103244008863ADF80430204618230DEB06018DF891
:1032540007308DF8067001F0D8F93046012101F0ED
:1032640063FA0848012101F05FFA2046294601F07B
:1032740036FA2046202101F030FA03B0F0BD00BF39
:10328400000C0140000430000148002102F02FBC72
:1032940000380140024B00221A705A70704700BF78
:1032A40018000020034B58781B78C01A18BF01205F
:1032B400704700BF1800002010B5044620210D48B7
:1032C40001F00DFA0B48102101F007FA0A482146D3
:1032D40002F074FC0848402102F0CBFC0028F9D02D
:1032E4000448102101F0FBF9BDE8104001482021F9
:1032F40001F0F3B9000C014000380140064B597845
:103304001A789142FAD05A781A4490785A7801324D
:10331400D2B25A70704700BF18000020014608B5A9
:10332400044802F04BFC0348402102F0A2FC0028B0
:10333400F9D008BD0048004010B5441E14F8010F30
:1033440010B1FFF7EBFFF9E710BD10B504460621F5
:10335400002200F0A7FE00F01BFE204608210022F8
:1033640000F0A0FE00F014FEBDE810400148FFF795
:10337400E3BF00BFE05E000810B50446062100224A
:1033840000F090FE00F004FE2046082140F2FF32D7
:1033940000F088FE00F0FCFDBDE810400148FFF796
:1033A400CBBF00BF015F00080238052810D8DFE852
:1033B40000F0030705090B0D07480AE0074808E079
:1033C400074806E0074804E0074802E0074800E031
:1033D4000748FFF7B1BF00BF205F0008525F000835
:1033E4007F5F0008B35F0008E15F00080D6000081C
:1033F4003760000808B5012000F0E8FD012802D17B
:103404001A48FFF799FF022000F0E0FD012802D1DD
:103414001748FFF791FF042000F0D8FD012802D1DE
:103424001448FFF789FF082000F0D0FD012802D1DD
:103434001148FFF781FF102000F0C8FD012802D1D8
:103444000E48FFF779FF202000F0C0FD012802D1CB
:103454000B48FFF771FF402000F0B8FD012804D1AC
:10346400BDE808400748FFF767BF08BD546000087F
:103474006A6000087E6000088F600008A46000088D
:10348400B5600008C660000810B50446030903F1DE
:103494003000392888BF03F1370004F00F04FFF728
:1034A4003DFF04F13000392888BF04F13700BDE83E
:1034B4001040FFF733BF10B50446000AFFF7E4FFDE
:1034C400E0B2BDE81040FFF7DFBF0A1E10B5B8BF79
:1034D400C2F58062202100F0E5FD00F059FD0128CD
:1034E40004460AD00548FFF727FFA0B2FFF7E3FF21
:1034F400BDE810400248FFF71FBF10BDF66000088A
:10350400DF60000838B50C4605461146FFF7DDFFBD
:10351400002CB8BF04F58064224628461E2100F022
:10352400C1FD00F035FD012804460AD00548FFF727
:1035340003FFA0B2FFF7BFFFBDE838400248FFF722
:10354400FBBE38BDE4600008DF60000810B5192137
:10355400012200F07DFD00F01BFD012804460AD085
:103564000548FFF7E9FEA0B2FFF7A5FFBDE810404C
:103574000248FFF7E1BE10BDE4600008DF60000808
:1035840010B51921002200F063FD00F001FD0128AF
:1035940004460AD00548FFF7CFFEA0B2FFF78BFF21
:1035A400BDE810400248FFF7C7BE10BDE460000844
:1035B400DF60000810B50C46202100F05BFD2060A0
:1035C40000F0E6FC012804460AD00648FFF7B4FEE2
:1035D400A0B2FFF770FFBDE810400348FFF7ACBE90
:1035E40010BD00BFF5600008DF60000810B50C4690
:1035F400242100F03FFD206000F0CAFC01280446AD
:103604000AD00648FFF798FEA0B2FFF754FFBDE8C2
:1036140010400348FFF790BE10BD00BFF5600008DE
:10362400DF60000810B50C46202100F0FDFC20707E
:1036340000F0AEFC012804460AD00648FFF77CFEE1
:10364400A0B2FFF738FFBDE810400348FFF774BE8F
:1036540010BD00BFF5600008DF60000810B50C461F
:10366400212100F0E1FC207000F092FC01280446C6
:103674000AD00648FFF760FEA0B2FFF71CFFBDE8C2
:1036840010400348FFF758BE10BD00BFF5600008A6
:10369400DF60000810B50C461A2100F0C5FC20704C
:1036A40000F076FC012804460AD00648FFF744FEE1
:1036B400A0B2FFF700FFBDE810400348FFF73CBE8F
:1036C40010BD00BFF5600008DF60000810B50C46AF
:1036D4001B2100F0A9FC207000F05AFC01280446CC
:1036E4000AD00648FFF728FEA0B2FFF7E4FEBDE8C3
:1036F40010400348FFF720BE10BD00BFF56000086E
:10370400DF60000810B50C461C2100F08DFC207011
:1037140000F03EFC012804460AD00648FFF70CFEE0
:10372400A0B2FFF7C8FEBDE810400348FFF704BE8F
:1037340010BD00BFF5600008DF60000810B50C463E
:103744001D2100F071FC207000F022FC01280446C9
:103754000AD00648FFF7F0FDA0B2FFF7ACFEBDE8C3
:1037640010400348FFF7E8BD10BD00BFF560000836
:10377400DF60000810B50C461E2100F055FC2070D7
:1037840000F006FC012804460AD00648FFF7D4FDE1
:10379400A0B2FFF790FEBDE810400348FFF7CCBD90
:1037A40010BD00BFF5600008DF60000810B50C46CE
:1037B4001F2100F039FC207000F0EAFB01280446C8
:1037C4000AD00648FFF7B8FDA0B2FFF774FEBDE8C3
:1037D40010400348FFF7B0BD10BD00BFF5600008FE
:1037E400DF60000810B50C46232100F043FC206084
:1037F40000F0CEFB012804460AD00648FFF79CFDE2
:10380400A0B2FFF758FEBDE810400348FFF794BD8F
:1038140010BD00BFF5600008DF60000810B50A465F
:10382400282100F015FC00F0B3FB012804460AD05F
:103834000548FFF781FDA0B2FFF73DFEBDE810404B
:103844000248FFF779BD10BDF5600008DF6000088D
:1038540038B505460C4628462921224600F0F8FBD7
:1038640000F096FB0128F6D138BD10B588B001A848
:1038740001F029FD04A801F02FFD4FF0804001F074
:103884009BFB4FF6FF73002401A94FF08040ADF875
:103894000830ADF80440ADF80A40ADF8064001F038
:1038A400EFFB01224FF0804040F2D22101F0B0FD45
:1038B400104B04A91B884FF08040ADF81630ADF8CA
:1038C4001040ADF81240ADF8184001F0F7FB214666
:1038D4004FF0804001F021FE01224FF08040022190
:1038E40001F02FFD4FF08040012101F010FD08B0E0
:1038F40010BD00BF0000002010B54FF08040022131
:1039040002F037F8E8B102214FF0804002F03CF8B1
:103914004FF0804002F010F80A4C0B4BC4F804013D
:10392400D4F804111B884FF08040194489B201F087
:1039340030FFD4F8083123B1D4F80831013BC4F87E
:10394400083110BD180000200000002038B50948D7
:1039540040F2255102F097F958B1074D05482B78EC
:10396400DCB2631CDBB22B7002F02CF92C44C0B225
:10397400A07038BD003801401800002008B542F29C
:10398400283001F0A9FABDE80840012001F0BEBAD0
:10399400044BD3F80C2122B1D3F80C21013AC3F81B
:1039A4000C2170471800002010B50446012001F0D6
:1039B40099FA084BC3F80C41D3F80C41002CFBD105
:1039C4006FF0010001F08EFA2046BDE8104001F0CE
:1039D40089BA00BF1800002070B50C460546FE21C8
:1039E4001646FFF735FF21462846FFF717FF002448
:1039F400B44204DA0120FFF7D7FF0134F8E7284680
:103A0400BDE870400021FFF723BF08B51621FA2254
:103A14006420FFF7E1FFFA20FFF7C6FF64201821B6
:103A2400FA22FFF7D9FF1421FA226420FFF7D4FF0A
:103A3400FA20FFF7B9FF16214FF47A726420FFF7DA
:103A4400CBFF4FF4FA70FFF7AFFF1921FA2264207D
:103A5400FFF7C2FFFA20FFF7A7FF64201821FA221C
:103A6400FFF7BAFF1421FA226420FFF7B5FFFA200A
:103A7400FFF79AFF642016214FF47A72FFF7ACFF28
:103A8400BDE808404FF4FA70FFF78EBF10B5042468
:103A94003948FFF751FC0420FFF758FD0320FFF7D6
:103AA40055FD3648FFF748FC35484FF4005100F007
:103AB40014FE4FF40051334800F011FE6420FFF768
:103AC40073FF30484FF4005100F007FE4FF480417B
:103AD4002C4800F004FE6420FFF766FF29484FF4E9
:103AE400804100F0FAFD4FF40041264800F0F7FD54
:103AF4006420FFF759FF23484FF4004100F0EDFD27
:103B04004FF480411E4800F0EAFD6420FFF74CFFAB
:103B14001B484FF4804100F0E0FD4FF40041184889
:103B240000F0DDFD6420FFF73FFF15484FF400412E
:103B340000F0D3FD4FF48051124800F0D0FD642012
:103B4400FFF732FF0F484FF4805100F0C6FD4FF4E9
:103B540000510B4800F0C3FD6420FFF725FF0A481D
:103B6400FFF7EAFB0420FFF70BFD0320FFF708FD36
:103B7400013C8DD110BD00BF05610008196100082A
:103B840000100140000C01402261000830B50D46D0
:103B9400044685B0684601F089FF0023ADF804307F
:103BA400ADF80630ADF80830ADF80C300C230095B4
:103BB400ADF80A308CB9124801F0EAFE0A20FFF78A
:103BC400F3FE0F48694601F02DFF0D4840F22551E0
:103BD400012201F098FF0A480CE0022C0DD109489B
:103BE40001F0D6FE0A20FFF7DFFE0648694601F021
:103BF40019FF0448012101F07AFF05B030BD00BF70
:103C0400003801400048004008B5FFF791FAFFF77B
:103C1400D1FAFFF7F6FAFFF7B1FEFFF726FE01210E
:103C2400002000F097F8034B02205968BDE80840D3
:103C3400FFF7ACBF0000002001460020FFF7A6BF3D
:103C4400014BC3F80801704718000020034BD3F858
:103C54000801B0FA80F04009704700BF1800002046
:103C64007047FEE7FEE7FEE7FEE7704770477047E0
:103C7400FFF78EBE704770477047704770477047B4
:103C84007047704770477047704770477047704778
:103C94007047704770477047704770477047704768
:103CA400704770477047704770477047FFF724BEEE
:103CB4007047704770477047704770477047704748
:103CC400FFF744BE704770477047704770477047AE
:103CD4007047704770477047704770477047704728
:103CE4007047704770477047704770477047704718
:103CF40008B50846FFF7A0FF012008BDFFF7C4BAC6
:103D0400FFF7C8BA70B506460C4600235D1CDBB24B
:103D1400A34204DAF05CFFF7CFFA2B46F6E720461D
:103D240070BDF8B507460E460024E5B2B54207DA81
:103D3400FFF7B8FA013420B1FFF7E0FA7855F4E759
:103D440035462846F8BD64235843FFF779BFFFF78B
:103D54007DBF000008B5074B013193FBF1F1FFF77C
:103D6400C7FF28B1044B01201860044B00221A60DD
:103D740008BD00BF80841E00140000203001002014
:103D8400FFF7BCBF70B5244C2368012B43D0E27904
:103D94000123982A236005D9204B04221A600023AA
:103DA400236070BD237A591E052901D9832BF3D1D1
:103DB400FF230020237163710346C1B28A4200F1DC
:103DC400010004DB214489790B44DBB2F5E7DB43D2
:103DD400124D2244D3712B68063B012B01D8FFF707
:103DE4008FFFE4790C4E0434E4B2301D2146FFF712
:103DF40089FFC0B2844204D002232B6000233360C5
:103E040070BD337A022B0ABFB07A06200630FFF762
:103E14009AFF00232B6070BD3001002014000020A5
:103E2400F8B5514C2368002B00F09C80A3794F4EC9
:103E3400FE2B01D1012333E0336823B984F8A43085
:103E4400062384F8A530484D94F8A43094F8A510BE
:103E540005F1A607F818C91AFFF763FF94F8A43010
:103E6400184494F8A530C0B2834284F8A4001BD946
:103E7400FFF76DFF012817D195F8A4307BB906230D
:103E84000EE084F8A45094F8A41094F8A530364DAC
:103E94008B424DD8AA7995F8A8309A4232D007239C
:103EA400336000232360F8BD94F8A4100022481E58
:103EB400A1F1020ED3B2834209DAE51895F8A6C03F
:103EC400BCF1FF0F07D195F8A750FF2D03D1002BAC
:103ED400D9D0002008E0734504D1251895F8A650E0
:103EE400FF2DF4D00132E5E7C2B2CD1AAA4200F1A7
:103EF4000100C6DAE518154495F8A650224482F864
:103F0400A650F1E795F8A9300433DBB2994285F85D
:103F1400A53010D27818591AFFF703FF95F8A4308A
:103F2400184495F8A530C0B2834285F8A40002D99C
:103F340005233360F8BD0020034694F8A920C1B2DC
:103F44008A4200F1010005DB214491F8A8100B44DA
:103F5400DBB2F4E7DB43224492F8A920DBB29A42B5
:103F64009DD167E7F8BD00BF300100201400002098
:103F740010B5FFF707FF054B1A681C4622B9FFF777
:103F84004FFF2368052BFAD010BD00BF140000209A
:103F9400014B1868704700BF14000020014B987152
:103FA400704700BF30010020014B1872704700BFFA
:103FB40030010020014B1844417270473001002049
:103FC400014BD871704700BF30010020034B93F8B8
:103FD400AA30184214BF012000207047300100208D
:103FE400014B93F8A900704730010020024B18449C
:103FF40090F8AB00704700BF3001002000EB0120B7
:1040040080B27047C0B27047C0F307207047054BB9
:104014001A68002AFDD101221A7202229871DA71FB
:10402400FFF7A6BF3001002010B5084C2368002B11
:10403400FDD1022323720123A3720423A0716172B0
:10404400E371FFF795FF94F8AB0010BD3001002039
:10405400074B10B51C68002CFDD198719A7203208F
:10406400042218725972DA71BDE81040FFF780BF5C
:104074003001002010B50A4C2368002BFDD1022327
:104084002372A3720423A071E3716172FFF770FFBE
:1040940094F8AC0094F8AB3003EB002080B210BD70
:1040A40030010020094B10B51C68002CFDD19A7218
:1040B400C2F307229871DA7203200522187259722A
:1040C400DA71BDE81040FFF753BF00BF3001002094
:1040D400044B1A6802F038021A601A681043186018
:1040E400704700BF00200240044B1A6822F0080207
:1040F4001A601A6810431860704700BF002002401D
:10410400044B1A6822F010021A601A6810431860EF
:10411400704700BF00200240034B044A5A6002F17A
:1041240088325A60704700BF00200240230167456F
:10413400024A136943F08003136170470020024070
:10414400014BD8698008704700200240014B186A6F
:10415400704700BF00200240024BD869C0F3400002
:10416400704700BF00200240024B1868C0F34010A3
:10417400704700BF00200240044B1A6909B1104384
:1041840001E022EA00001861704700BF00200240ED
:104194000128064B03D1D86900F001007047DB68A1
:1041A400184214BF01200020704700BF00200240C5
:1041B400014BD860704700BF00200240084BDA680A
:1041C400D10709D4DA68520708D4DB6813F0100F5A
:1041D40014BF032004207047012070470220704759
:1041E4000020024013B50446FFF7E8FF01280FD171
:1041F40064B100230193FF230193019B13B1019B3D
:10420400013BF9E7FFF7DAFF013CEFE7052002E0A5
:10421400002C08BF052002B010BD38B5054640F695
:10422400FF70FFF7DFFF042814D10B4C40F6FF703A
:10423400236943F0020323616561236943F040036A
:104244002361FFF7CFFF01281FBF41F6FD732269E9
:104254001340236138BD00BF0020024010B540F672
:10426400FF70FFF7BFFF042813D10A4C40F6FF701C
:10427400236943F004032361236943F0400323616A
:10428400FFF7B0FF01281FBF41F6FB7322691340FB
:10429400236110BD0020024010B540F6FF70FFF707
:1042A400A1FF042829D1154C154B40F6FF70A360DB
:1042B40003F18833A360236943F020032361236956
:1042C40043F040032361FFF78DFF04280ED141F62C
:1042D400DF7322690F20134023612369A52243F071
:1042E40010032361074B1A80FFF77CFF01281FBFCF
:1042F40041F6EF7322691340236110BD0020024090
:104304002301674500F8FF1F70B506460F200D46D0
:10431400FFF768FF042817D10C4C0F20236943F0E2
:1043240001032361ABB23380FFF75CFF042804D19F
:104334002D0C75800F20FFF755FF01281FBF41F694
:10434400FE7322691340236170BD00BF0020024048
:1043540070B505460F200E46FFF744FF04280FD121
:10436400084C0F20236943F0010323612E80FFF7DB
:1043740039FF01281FBF41F6FE73226913402361F0
:1043840070BD00BF0020024070B506460F200D46E8
:10439400FFF728FF042815D10B4C0C4BADB2A360DA
:1043A40003F18833A36023690F2043F010032361D2
:1043B4003580FFF717FF01281FBF41F6EF7322690D
:1043C4001340236170BD00BF0020024023016745F4
:1043D40010B504460F20FFF705FF042841D1E4433C
:1043E400204B214AE1B29A6002F188329A601A693C
:1043F400FF2942F010021A6104D1C4F30723FF2BF2
:1044040008D10FE0194B0F201981FFF7EBFE0428A8
:104414001FD1F2E7154A9BB253810F20FFF7E2FE4A
:10442400042816D1C4F30743FF2B07D00F4A9BB2CD
:1044340093810F20FFF7D6FE04280AD1240EFF2C07
:1044440001D1042007E0094BA4B2DC810F20FFF75F
:10445400C9FE012805D041F6EF73024A11690B40E9
:10446400136110BD002002402301674500F8FF1FBF
:1044740038B5054640F6FF70FFF7B4FE042836D180
:104484001B4C1C4B40F6FF70A36003F18833A36000
:10449400236943F020032361236943F0400323612C
:1044A400FFF7A0FE04281BD141F6DF7322691340F5
:1044B4002361236943F0100323610F4B0DB10022E4
:1044C40000E0A5221A8040F6FF70FFF78BFE01285A
:1044D4000DD041F6EF73064A11690B40136138BDE4
:1044E40001281FBF41F6DF7322691340236138BDE1
:1044F400002002402301674500F8FF1FF8B5114D65
:10450400114B0646AB6003F18833AB600F200F46B6
:104514001446FFF767FE042813D12B6944F0F80012
:1045240043F010032B613843084B304358800F206D
:10453400FFF758FE01281FBF41F6EF732A691340A5
:104544002B61F8BD002002402301674500F8FF1FDE
:1045540008B5264B98422FD011D8A3F50063984292
:104564001ED003F58063984220D0A3F500639842DF
:104574003AD10420012100F035FC04202FE01C4B2B
:1045840098421FD003F58063984221D0A3F50063BD
:10459400984229D14020012100F024FC40201EE053
:1045A4000820012100F01EFC082018E01020012141
:1045B40000F018FC102012E02020012100F012FC71
:1045C40020200CE08020012100F00CFC802006E07B
:1045D4004FF48070012100F005FC4FF4807000213D
:1045E400BDE8084000F0FEBB08BD00BF0014014058
:1045F400001C014008B50120014600F0F3FBBDE8B2
:1046040008400120002100F0EDBBCA78F0B5D406C3
:1046140048BF8C780D8802F00F0348BF234315F080
:10462400FF0F1DD0016800240126A64006EA0507F5
:10463400B74211D14FEA840E0F2606FA0EF621EA8C
:104644000601282A03FA0EF641EA060101D1476160
:1046540002E0482A08BF07610134082CE4D1016054
:10466400FF2D1FD94168002404F108070126BE402C
:1046740006EA0507B74211D14FEA840E0F2606FA5F
:104684000EF621EA0601282A03FA0EF641EA06018B
:1046940001D1476102E0482A08BF07610134082CB0
:1046A400E2D14160F0BD4FF6FF73038002238370B3
:1046B4000423C37070478368194214BF012000208B
:1046C4007047806880B27047C368194214BF0120E4
:1046D40000207047C06880B2704701617047416133
:1046E40070470AB10161704741617047C16070470A
:1046F40041F4803383618161836183698369704795
:10470400054A136823F07F031B041B0C194341EA79
:1047140000101060704700BF00000140014B18609A
:10472400704700BF1C00204230B5134C00F4401504
:10473400B5F5401F636882B206D1656823F07063E3
:1047440025F0706565600EE0C40255BF440D032476
:104754002401C0F303454CBFAC4002FA04F423EA3D
:10476400040343F0706319B1400D00018240134308
:10477400014A536030BD00BF0000014001F0030353
:1047840001F0FC0101F1804101F5803110B59B007D
:104794008C680F229A4024EA02028A608A68984050
:1047A40002438A6010BD00BF0B4B6FF070424FF0A4
:1047B400FF31C3F88010C3F88420C3F88011C3F814
:1047C4008421002202F1C001013200200F2A43F8A3
:1047D4002100F7D1704700BF00E100E0094B4FF022
:1047E400206209495A6000229A60D9601A615A61AC
:1047F4009A61DA611A625A624FF0FF329A62DA629F
:104804001A63704700ED00E00000FA0540F0BF6055
:10481400024B40F40030D860704700BF00ED00E068
:10482400C27830B5037872B31C4A03F00305D46828
:104834004278E443C4F30224C4F1040102FA01F10E
:104844000F22E240847803F0FC03224003F160432A
:1048540003F561430A43D3F80043ED001201FF213D
:10486400A940AA4024EA01040A402243C3F80023D1
:1048740003780122590903F01F0302FA03F3084ADB
:1048840042F8213030BD5A09012103F01F03994039
:1048940002F12003024A42F8231030BD00ED00E08B
:1048A40000E100E00023037043708370C37070471D
:1048B40001F035BA01F035BA01F035BA01F035BA74
:1048C400000101F034BA01F035BA024B5868C0F364
:1048D4000930704700ED00E000F01F0301229A4008
:1048E40004494309403351F823001040831A5842C5
:1048F4005841704700E100E0014B1860704700BF69
:1049040000EF00E04309012200F01F000249824049
:10491400603341F82320704700E100E0024B5868FF
:10492400C0F30900704700BF00ED00E000F01F0372
:1049340001229A4004494309803351F8230010406E
:10494400831A58425841704700E100E0014B18684F
:10495400704700BF00ED00E021F0604121F07F01CD
:10496400014B08439860704700ED00E0014A024B98
:10497400DA6070470400FA0500ED00E0014A024BDA
:10498400DA6070470100FA0500ED00E0044B1A6993
:1049940009B1104301E022EA00001861704700BF2A
:1049A40000ED00E000F01F0001228240044B11B131
:1049B400596A0A4302E0596A21EA02025A627047BC
:1049C40000ED00E0114B10B5DB68DB43C3F30223B9
:1049D400C3F10404A140FF2424FA03F31A40C0F3F2
:1049E4000123C0F38110800000F1604000F56D40A8
:1049F4001143DB0082699C4022EA040484618269D9
:104A0400090199401143816110BD00BF00ED00E030
:104A1400054AC0F3832001238340506A1840C31A17
:104A240058425841704700BF00ED00E0044900F0CF
:104A34001F004B680122824013434B60704700BF44
:104A440000ED00E0044900F01F004B68013801222A
:104A5400824013434B60704700ED00E0054AC0F309
:104A6400833001238340506A1840C31A5842584186
:104A7400704700BF00ED00E0C0F38143094A0BB961
:104A8400D06A7047012B0AD1C0F30153906ADA004F
:104A9400D040022B14BF00F00F00C0B27047106B5F
:104AA400704700BF00ED00E0034B10F4800F0CBF13
:104AB400586B986B704700BF00ED00E008B54FF0ED
:104AC4008050012100F09AF9BDE808404FF0805071
:104AD400002100F093B9014B1860704720000E428A
:104AE400014B1860704700BF10000E42034A136860
:104AF40023F0E00318431060704700BF00700040CB
:104B0400014B1860704700BFA0000E42084A0129FB
:104B1400136823F0030340EA03001060054A136896
:104B240043F00403136001D101F0D4B801F0D4B808
:104B34000070004010ED00E0074B1A6842F00402D8
:104B44001A601A6842F002021A60044A136843F0B9
:104B54000403136001F0BEB80070004010ED00E0E3
:104B6400034B5B68184214BF01200020704700BF4C
:104B740000700040024A136843EA800010607047E6
:104B8400007000400C4B1A6842F001021A60596828
:104B94000A4A0A405A601A6822F0847222F4803267
:104BA4001A601A6822F480221A605A6822F4FE02FB
:104BB4005A6000229A607047001002400000FFF81B
:104BC4000C4BB0F5803F1A6822F480321A601A68E0
:104BD40022F480221A6003D0B0F5802F04D07047ED
:104BE4001A6842F4803202E01A6842F4A0221A6081
:104BF400704700BF00100240034A136823F0F80313
:104C040043EAC0001060704700100240014B186076
:104C1400704700BF00004242034A536823F47C13E8
:104C2400194308435060704700100240014B18605C
:104C3400704700BF60004242034A536823F00303F5
:104C440018435060704700BF00100240024B586880
:104C540000F00C00704700BF00100240034A536884
:104C640023F0F00318435060704700BF0010024067
:104C7400034A536823F4E06318435060704700BF4D
:104C840000100240034A536823F4605343EAC0000F
:104C94005060704700100240044B1A7809B1104369
:104CA40001E022EA00001870704700BF09100240BA
:104CB400014B1860704700BFD8004242034A536852
:104CC40023F4404318435060704700BF0010024073
:104CD400064B002201281A701A7002D0042802D050
:104CE40070471870704705221A70704720100240F0
:104CF400014B1860704700BF80044242024A136AA5
:104D040018431062704700BF00100240014B186046
:104D1400704700BF3C0442421C4A10B5536803F07C
:104D24000C03042B01D0082B01D0194B0EE053685F
:104D34005168C3F38343CC0303F1020302D55168E2
:104D4400890301D5134900E011494B4303605368BB
:104D54001149C3F30313CC5C0368E3404360546814
:104D6400C4F302240C5D23FA04F484605468C4F38D
:104D7400C2240C5DE340C3605268C2F381320A442A
:104D8400127CB3FBF2F3036110BD00BF00100240BC
:104D940000127A0000093D00CC5E0008044B5A69F9
:104DA40009B1104301E022EA00005861704700BFD6
:104DB40000100240044B9A6909B1104301E022EA51
:104DC40000009861704700BF00100240044BDA698C
:104DD40009B1104301E022EA0000D861704700BF26
:104DE40000100240044BDA6809B1104301E022EAE2
:104DF4000000D860704700BF00100240044B1A69DD
:104E040009B1104301E022EA00001861704700BFB5
:104E140000100240014B1860704700BF400442423A
:104E2400014B1860704700BF4C004242014B1870A0
:104E3400704700BF071002404209012A074B01D105
:104E44001B6803E0022A0CBF1B6A5B6A00F01F00A8
:104E540023FA00F000F00100704700BF0010024088
:104E640007B5002301933120FFF7E6FF019B0133CF
:104E7400019318B9019BB3F5A06FF4D13120FFF76A
:104E8400DBFF003018BF012003B05DF804FB034AC8
:104E9400536A43F080735362704700BF00100240AE
:104EA400034B9B68184214BF01200020704700BFC9
:104EB40000100240014B1870704700BF0A100240F6
:104EC400044B04281A680CBF42F0040222F00402C6
:104ED4001A60704710E000E0014B5860704700BF53
:104EE40010E000E00128084B03D11A6842F00102E7
:104EF40004E0023004D11A6822F001021A607047FB
:104F040000229A60704700BF10E000E0044B1A686A
:104F140010B142F0020201E022F002021A6070476E
:104F240010E000E0014B9868704700BF10E000E01B
:104F3400C308022B044B0CBF1B68DB6823FA00F088
:104F440000F00100704700BF10E000E030B5048CB1
:104F540024F001042404240C0484048B058CA4B2DE
:104F6400ADB224F0F304224325F0020542EA031310
:104F740045F001059AB229430283018430BD30B55E
:104F8400048C24F010042404240C0484058B048C65
:104F940025F44075A4B22D052D0D24F0200444F011
:104FA400100445EA022242EA033344EA01119BB2A7
:104FB4008CB20383048430BD08B52E4B98423AD09A
:104FC40010D8A3F50063984225D003F58063984276
:104FD4002BD0B0F1804F4CD101200146FFF70EFFDA
:104FE40001201DE0244B984231D004D8A3F58063FE
:104FF400984226D008BD214B984204D003F50063A3
:1050040098422AD008BD4FF400600121FFF7EAFE60
:105014004FF4006028E002200121FFF7EFFE022098
:105024000021BDE80840FFF7E9BE04200121FFF795
:10503400E5FE0420F4E708200121FFF7DFFE082045
:10504400EEE710200121FFF7D9FE1020E8E7202029
:105054000121FFF7D3FE2020E2E74FF400500121A5
:10506400FFF7C0FE4FF400500021BDE80840FFF7F1
:10507400B9BE08BD000C004000140040002C0140E3
:105084000388CA8803F08F03038003889BB2134309
:105094004A8813439BB203808B8883850B880385DE
:1050A40001238382044B984203D003F500639842A2
:1050B40001D10B7A03867047002C0140038C70B534
:1050C40023F001031B041B0C0384038C8488028BD0
:1050D4000E8822F070021204120C23F0020516430B
:1050E4004B880A892D041343CA882D0C82860F4AE3
:1050F4002B439042A4B29BB203D002F500629042CB
:105104000FD147F6FF454A8923F0080313438A88E1
:1051140023F0040325401343CC898A8914432C4388
:10512400A4B284800683038470BD00BF002C0140B8
:10513400038C30B523F010031B041B0C0384038C75
:105144008588028B0C8822F4E0421204120C42EA95
:10515400042223F0200394B21B040A891B0C43EAA3
:1051640002134A88ADB243EA0213CA889BB202878B
:10517400104A904203D002F50062904216D123F007
:1051840080034A899BB243EA02124FF6BF7313406D
:105194008A8843EA021347F2FF322A408D899BB280
:1051A40042EA8502CD8942EA8505ADB28580048351
:1051B400038430BD002C0140038C70B523F480734C
:1051C4001B041B0C0384038C8488828B0E8822F0BE
:1051D40070021204120C23F4007316431B040A8990
:1051E4001B0C43EA02234A88A4B243EA0223CA8876
:1051F4009BB28287104A904203D002F5006290422B
:1052040016D123F400634A8944F6FF759BB243EA3E
:1052140002224FF6FF3325408C89134045EA0415DA
:105224008A88CC8943EA022345EA04149BB2A4B2D7
:1052340084808683038470BD002C0140038C30B5C8
:1052440023F480531B041B0C0384038C8488828BFB
:105254000D8822F4E0421204120C23F4005342EAB3
:1052640005221B040D891B0C43EA05334D88A4B2A7
:1052740043EA0533CD8892B2A0F84050084D9BB262
:10528400A84203D005F50065A84205D18989C4F375
:105294000D0444EA8114A4B284808283038430BD63
:1052A400002C01404A880B8813438A881343CA8818
:1052B40013430A8913434A8913438A8913439BB2CC
:1052C400A0F8443070474FF6FF73838000230380B7
:1052D400C38043800372704700230380438083802C
:1052E400C380038143818381C381704700230122EA
:1052F400038043808280C38003817047002303803E
:1053040043808380C3800381438183817047038802
:1053140019B19BB243F0010303E023F001039B05A1
:105324009B0D03807047B0F8443029B16FEA4343C2
:105334006FEA53439BB201E0C3F30E03A0F8443079
:10534400704783899BB20AB1194301E023EA010142
:1053540081817047818270470A43A0F848207047D2
:1053640083899BB20AB1194301E023EA01018181D7
:105374007047038923F007031B041B0C0381704748
:10538400038923F070031B041B0C19430181038957
:105394009BB243F007030381704738B50D46602D77
:1053A400114604464FF0010202D1FFF7E8FD01E087
:1053B400FFF7CCFD218921F070010904090C294370
:1053C400218123899BB243F00703238138BD10B5A3
:1053D400048942EA0323E4B223439BB219430181C3
:1053E40010BD10B50446FFF7F2FF238923F07703BD
:1053F4001B041B0C43F07703238110BD10B5044636
:10540400FFF7E5FF23899BB243F48043238110BD5A
:10541400018582827047038823F070039B059B0DEE
:10542400194301807047038923F070031B041B0C8C
:1054340019430181704770B50689048B058C24F4E7
:105444004074ADB224F0030425F0220526F00706CB
:1054540024042A433604240C360C44F4807442EAAF
:105464000313314344F001049DB201810483058494
:1054740070BD038B23F070031B041B0C19430183C1
:105484007047038B23F4E0431B041B0C43EA012104
:1054940089B201837047838B23F070031B041B0CB8
:1054A400194381837047838B23F4E0431B041B0C53
:1054B40043EA012189B281837047038819B19BB201
:1054C40043F0800303E023F080039B059B0D0380DE
:1054D4007047838819B19BB243F0040303E023F0BF
:1054E40004031B041B0C83807047838819B19BB28F
:1054F40043F0080303E023F008031B041B0C838020
:105504007047838819B19BB243F0010303E023F091
:1055140001031B041B0C83807047038B23F00803D7
:105524001B041B0C194301837047038B23F4006392
:105534001B041B0C43EA012189B201837047838B4E
:1055440023F008031B041B0C194381837047838BCE
:1055540023F400631B041B0C43EA012189B28183F9
:105564007047038B23F004031B041B0C19430183B2
:105574007047038B23F480631B041B0C43EA012153
:1055840089B201837047838B23F004031B041B0C33
:10559400194381837047838B23F480631B041B0CA2
:1055A40043EA012189B281837047038B23F080038E
:1055B4001B041B0C194301837047038BC3F30E03B5
:1055C40043EA012189B201837047838B23F080036E
:1055D4001B041B0C194381837047838BC3F30E0395
:1055E40043EA012189B281837047038C23F00203CB
:1055F4001B041B0C194301847047038C23F008031C
:105604001B041B0C194301847047038C23F02003F3
:105614001B041B0C43EA011189B201847047038CFB
:1056240023F080031B041B0C43EA011189B201849B
:105634007047038C23F400731B041B0C43EA012101
:1056440089B201847047038C23F400631B041B0C90
:1056540043EA012189B201847047038C23F4005387
:105664001B041B0C43EA013189B201847047038C8B
:1056740010B59CB201238B4024EA03030384038CFA
:105684008A4013439BB2038410BD038C10B59CB2B3
:1056940004238B4024EA03030384038C8A401343CA
:1056A4009BB2038410BD038C10B59CB201238B40C4
:1056B40024EA0303038421F0080318303BB94FF6AE
:1056C4008F73490844582340435043580AE048F62E
:1056D400FF730439C1F34E0144581202234043506E
:1056E400435892B21A43425010BD038819B19BB279
:1056F40043F0020303E023F002039B059B0D0380A8
:105704007047038819B19BB243F0040303E023F00C
:1057140004039B059B0D03807047838819B19BB2DA
:1057240043F0800303E023F080031B041B0C8380FD
:105734007047038823F008039B059B0D03800388AF
:105744009BB2194301807047838823F070031B04C4
:105754001B0C838083889BB2194381807047038923
:1057640023F007031B041B0C038103899BB2194319
:1057740001817047038923F080031B041B0C038100
:1057840003899BB2194301817047818470478185E5
:105794007047818670470187704781877047A0F8FA
:1057A40040107047038B23F00C031B041B0C038372
:1057B400038B9BB2194301837047038B23F440632B
:1057C4001B041B0C0383038B9BB243EA012189B2A4
:1057D40001837047F8B50C464988A2880029B4F8BB
:1057E40000E00CBF02270027012A05460CBF022651
:1057F40001262389BEF1000F11D1FFF7A7FB28462C
:10580400E188FFF7CFFF2846394632462389FFF760
:10581400B6FB2846E188BDE8F840FFF7CEBFFFF7A6
:10582400AEFB2846E188FFF7C8FF284639463246D2
:105834002389FFF78BFB2846E188BDE8F840FFF792
:10584400B1BF838B23F00C031B041B0C8383838B5A
:105854009BB2194381837047838B23F440631B04F9
:105864001B0C8383838B9BB243EA012189B281831E
:105874007047F8B50D460E8804464988AA882B89D6
:105884003EB9FFF763FB2046E988BDE8F840FFF71F
:1058940089BF042E07D1FFF772FB2046E988BDE8D3
:1058A400F840FFF78ABF082EB5F806E0058C1CD136
:1058B40025F480752D042D0C0584878B068CBFB2CE
:1058C400B6B227F0F30726F4007647EA031346EA54
:1058D40001269FB2B6B23A4346F48076828371467B
:1058E4000684BDE8F840FFF7ACBF25F480552D04CD
:1058F4002D0C0584868B078C26F440752D05BFB2CC
:105904002D0D45EA022527F4005242EA013245EA08
:10591400033392B29BB242F4805283837146BDE852
:10592400F8400284FFF798BF0388DBB20380038842
:105934009BB2194301807047808E80B27047008FFC
:1059440080B27047808F80B27047B0F8400080B258
:105954007047808C80B27047008D80B27047038A94
:10596400194214BF012000207047C94389B2018243
:105974007047038A828911EA030092B203D011426C
:1059840014BF012000207047C94389B201827047C7
:1059940008B5224B98422CD008D8A3F5006398424E
:1059A40017D003F5806398421BD008BD1C4B984266
:1059B40027D003F5684398422FD14FF4804001214A
:1059C400FFF710FABDE808404FF480400021FFF7CC
:1059D40009BA4FF400300121FFF710FA4FF40030F8
:1059E40016E04FF480200121FFF708FA4FF48020DD
:1059F4000EE04FF400200121FFF700FA4FF40020DD
:105A040006E04FF480100121FFF7F8F94FF48010FD
:105A14000021BDE80840FFF7F1B908BD004C004083
:105A24000050004030B50D460446038ACA889BB234
:105A340023F440531343038282890989AB8892B2C9
:105A44000B43698922F4B0520B4322F00C02134336
:105A54009BB28381838AAA899BB223F4407387B063
:105A64001343838201A8FFF757F9039B049A0E4955
:105A74008C4218BF1A46192353432A689200B3FB79
:105A8400F2F26423B2FBF3F00001010903FB1122DB
:105A940012013232B2FBF3F303F00F0303439BB260
:105AA400238107B030BD00BF003801404FF41653C6
:105AB40003600C2200238380C3800381428183819D
:105AC40070470B8810B54C88028A23438C88C98898
:105AD40092B223430B4322F4706213439BB20382BA
:105AE40010BD0023038043808380C3807047838973
:105AF40019B19BB243F4005303E023F400531B0495
:105B04001B0C8381704710B5C1F34214012301F0CB
:105B14001F01012C03FA01F301D10C3003E0022C24
:105B24000CBF1030143012B10268134302E0026853
:105B340022EA0303036010BD838A9BB20AB11943AE
:105B440001E023EA010181827047038A23F00F03F5
:105B54001B041B0C0382038A9BB219430182704706
:105B6400838923F400631B041B0C838183899BB208
:105B7400194381817047838919B19BB243F00203B1
:105B840003E023F002031B041B0C83817047038A88
:105B940023F020031B041B0C0382038A9BB21943CA
:105BA40001827047038A19B19BB243F4804303E036
:105BB40023F480431B041B0C03827047C1F30801C8
:105BC400818070478088C0F30800704783899BB246
:105BD40043F0010383817047038BDBB20383038BA0
:105BE4009BB243EA012101837047038B03F47F4393
:105BF4000383038B9BB2194301837047838A19B1D2
:105C04009BB243F0200303E023F020031B041B0C8E
:105C140083827047838A19B19BB243F0100303E077
:105C240023F010031B041B0C83827047838A19B171
:105C34009BB243F0080303E023F008031B041B0C8E
:105C440083827047838A23F004031B041B0C838222
:105C5400838A9BB2194381827047838A19B19BB2AC
:105C640043F0020303E023F002031B041B0C8382B2
:105C740070470388194214BF012000207047C943AC
:105C840089B201807047012310B5C1F3421401F0B9
:105C94001F029C4203FA02F201D1838903E0022C21
:105CA4000CBF038A838A9BB21340028892B23BB131
:105CB400090A01238B40134214BF0120002010BDA8
:105CC400184610BD090A01238B40DB439BB20380B5
:105CD400704700BF30BF704720BF704740BF704758
:105CE400BFF36F8F7047BFF34F8F7047BFF35F8F62
:105CF400704701DF7047EFF31480704780F3148816
:105D0400BFF36F8F7047EFF30980704780F3098802
:105D14007047EFF30880704780F30888704772B6C5
:105D2400704762B6704771B6704761B6704780F3CA
:105D340011887047EFF31280704740BA704700BA79
:105D440070470000684620F007018D4601B50C4AF3
:105D54000C4B0D498B4204D252F8041F43F8041B28
:105D6400F7E70A4B0A4A934203D2002243F8042B72
:105D7400F8E700F00FF8BDE801408546704700BF22
:105D840070610008000000201800002018000020A6
:105D94001C02002007B5FDF737FF0420FDF7D5FAF4
:105DA4000320FDF7D2FA04200021FDF78EFB002129
:105DB4000320FDF78AFBFDF728FEFDF767FE3A484E
:105DC4004FF40051FEF789FC4FF400513748FEF7B9
:105DD40086FC3748FDF7B0FA04204FF4C871FDF78C
:105DE40074FB03203349FDF770FB40F6B830FDF730
:105DF400DBFD2E484FF40051FEF76FFC2B484FF4A7
:105E04000041FEF76AFC29484FF48041FEF767FC25
:105E140004204FF4C871FDF758FB03204FF4C871F8
:105E2400FDF753FB0DF107016420FDF74FFC2248F9
:105E3400FDF782FA9DF80700FDF726FB1F48FDF7E2
:105E44007BFA9DF80730312BD3DD18484FF480419D
:105E5400FEF743FC4FF400411448FEF740FC642075
:105E6400FDF7A2FD04204FF40071FDF72EFB032083
:105E74001349FDF72AFB0DF107016420FDF726FC09
:105E84001048FDF759FA9DF80700FDF7FDFA0B4895
:105E9400FDF752FA9DF80730182BCCBF03230223D9
:105EA400032BD2D0A5E700BF00100140000C014035
:105EB4003761000870FEFFFF46610008E2600008D9
:105EC40000FEFFFF5C610008000000000102030403
:105ED4000102030406070809020406080A434D35B3
:105EE40020696E66696E69746520726F7461746985
:105EF4006F6E206D6F6465207365740A000A434DEC
:105F040035206E6F726D616C20726F746174696F8D
:105F14006E206D6F6465207365740A00434F4D4DA8
:105F24005F54584641494C3A204661696C65642087
:105F34007472616E736D697420696E7374727563C3
:105F440074696F6E207061636B6574210A00434F3E
:105F54004D4D5F54584552524F523A20496E636F2B
:105F6400727265637420696E737472756374696F99
:105F74006E207061636B6574210A00434F4D4D5F61
:105F840052584641494C3A204661696C6564206721
:105F9400657420737461747573207061636B6574C8
:105FA4002066726F6D20646576696365210A00431B
:105FB4004F4D4D5F525857414954494E473A204E30
:105FC4006F7720726563696576696E6720737461A3
:105FD400747573207061636B6574210A00434F4DBF
:105FE4004D5F525854494D454F55543A20546865B5
:105FF4007265206973206E6F2073746174757320E9
:106004007061636B6574210A00434F4D4D5F5258B4
:10601400434F52525550543A20496E636F72726521
:10602400637420737461747573207061636B657439
:10603400210A005468697320697320756E6B6E6F52
:10604400776E206572726F7220636F6465210A0037
:10605400496E70757420766F6C7461676520657223
:10606400726F72210A00416E676C65206C696D69FC
:1060740074206572726F72210A004F7665726865CA
:106084006174206572726F72210A004F7574206FFB
:10609400662072616E6765206572726F72210A00F4
:1060A400436865636B73756D206572726F72210A44
:1060B400004F7665726C6F6164206572726F722135
:1060C4000A00496E737472756374696F6E20636F2E
:1060D4006465206572726F72210A002121210A0011
:1060E4000A70726F626C656D2C20636F64653D3D50
:1060F400000A70726F626C656D2C20636F64653D7D
:10610400004D6F746F72206C6967687473206F6ED2
:106114002E2E2E0A00626C696E6B21210A004D6FCF
:10612400746F72206C6967687473206F46462E2EF4
:106134002E0A000A474F20544F2043454E544552DF
:106144000A000A5345454B494E472053454E534F89
:10615400522056414C5545000A43484153494E4745
:106164002053454E534F522056414C554500000094
:106174006400000000E1000001000000FF030000D3
:0861840040420F000100000081
:04000005080031348A
:00000001FF
