:020000040800F2
:1030000000000120795F0008953E0008973E000807
:10301000993E00089B3E00089D3E0008000000000D
:10302000000000000000000000000000A13E0008B9
:103030009F3E000800000000A33E0008A53E0008D7
:10304000A93E0008AB3E0008AD3E0008AF3E0008B8
:10305000B13E0008B33E0008B53E0008B73E000888
:10306000B93E0008BB3E0008BD3E0008000000005D
:103070000000000000000000000000000000000050
:103080000000000000000000CD3E0008CF3E000818
:10309000D13E0008D33E0008D53E0008D73E0008C8
:1030A000D93E0008DB3E0008DD3E0008DF3E000898
:1030B000E13E0008E53E0008E73E0008E93E000862
:1030C000EB3E0008ED3E0008EF3E0008F13E000830
:1030D000F33E0008F53E0008F93E0008FB3E0008FC
:1030E000FD3E0008FF3E0008013F0008033F0008C6
:1030F000053F0008073F0008093F00080B3F000894
:103100000D3F00080F3F0008113F0008133F000863
:10311000153F0008173F0008193F00081B3F000833
:103120001D3F00081F3F0008213F0008233F000803
:043130005FF8000044
:1031340010B501F03FFE4FF4803001F059FE01F06C
:10314400A7FF012804460DD044F20800012101F034
:1031540049FF1748012101F051FFBDE8104001204B
:1031640001F0D1BD102001F0E3F8022001F0C8F80D
:10317400002001F08BFE002001F09CFE4FF48060E3
:1031840001F08EFE4FF480304FF4E01101F05CFE4C
:10319400204601F063FE392001F066FF0028FAD0D2
:1031A400022001F061FE01F069FE0828FBD1CBE7A3
:1031B4000100040037B54FF440514FF0006001F0B6
:1031C400E3FC4FF4A06001F039FC00250124252321
:1031D40001A88DF804308DF805508DF806508DF84F
:1031E400074001F035FC1C2301A88DF804308DF84C
:1031F40005408DF806508DF8074001F029FC03B016
:1032040030BDF7B51E4C01A801F065FB0426302340
:1032140003271025204601A9ADF804308DF8067067
:103224008DF8075001F009FB4FF4086320460DEBBD
:103234000601ADF804308DF8076001F0FEFA4FF492
:103244008863ADF80430204618230DEB06018DF891
:1032540007308DF8067001F0F0FA3046012101F0D4
:103264007BFB0848012101F077FB2046294601F049
:103274004EFB2046202101F048FB03B0F0BD00BF07
:10328400000C0140000430000148002102F047BD59
:1032940000380140024B00221A705A70704700BF78
:1032A40018000020034B58781B78C01A18BF01205F
:1032B400704700BF1800002010B5044620210D48B7
:1032C40001F025FB0B48102101F01FFB0A482146A1
:1032D40002F08CFD0848402102F0E3FD0028F9D0FB
:1032E4000448102101F013FBBDE8104001482021DF
:1032F40001F00BBB000C014000380140064B59782B
:103304001A789142FAD05A781A4490785A7801324D
:10331400D2B25A70704700BF18000020014608B5A9
:10332400044802F063FD0348402102F0BAFD00287E
:10333400F9D008BD0048004010B5441E14F8010F30
:1033440010B1FFF7EBFFF9E710BD10B504460621F5
:10335400002200F0BFFF00F033FF204608210022C6
:1033640000F0B8FF00F02CFFBDE810400148FFF763
:10337400E3BF00BF8461000810B5044606210022A3
:1033840000F0A8FF00F01CFF2046082140F2FF32A5
:1033940000F0A0FF00F014FFBDE810400148FFF763
:1033A400CBBF00BFA56100080238052810D8DFE8AC
:1033B40000F0030705090B0D07480AE0074808E079
:1033C400074806E0074804E0074802E0074800E031
:1033D4000748FFF7B1BF00BFC4610008F6610008E9
:1033E400236200085762000885620008B162000881
:1033F400DB62000808B5012000F000FF012802D1BB
:103404001A48FFF799FF022000F0F8FE012802D1C4
:103414001748FFF791FF042000F0F0FE012802D1C5
:103424001448FFF789FF082000F0E8FE012802D1C4
:103434001148FFF781FF102000F0E0FE012802D1BF
:103444000E48FFF779FF202000F0D8FE012802D1B2
:103454000B48FFF771FF402000F0D0FE012804D193
:10346400BDE808400748FFF767BF08BDF8620008D9
:103474000E630008226300083363000848630008F1
:10348400596300086A63000810B50446030903F190
:103494003000392888BF03F1370004F00F04FFF728
:1034A4003DFF04F13000392888BF04F13700BDE83E
:1034B4001040FFF733BF10B50446000AFFF7E4FFDE
:1034C400E0B2BDE81040FFF7DFBF0A1E10B5B8BF79
:1034D400C2F58062202100F0FDFE00F071FE01289B
:1034E40004460AD00548FFF727FFA0B2FFF7E3FF21
:1034F400BDE810400248FFF71FBF10BD9A630008E3
:103504008363000810B5044604202146FFF7DDFF5D
:1035140061420320BDE81040FFF7D7BF4042FFF7E8
:10352400F1BF08B504204FF4AF71FFF7CEFFBDE83B
:10353400084003204FF4AF71FFF7C7BF10B5054C27
:1035440004202146FFF7C1FF2146BDE810400320B7
:10355400FFF7BBBFA2FEFFFF38B50C460546114678
:10356400FFF7B3FF002CB8BF04F580642246284659
:103574001E2100F0AFFE00F023FE012804460AD00D
:103584000548FFF7D9FEA0B2FFF795FFBDE8384024
:103594000248FFF7D1BE38BD886300088363000882
:1035A400034610B50C46022019466422FFF7D4FFE7
:1035B4002146BDE8104001206422FFF7CDBF10B5BD
:1035C400044608461146FFF7EBFF0223236010BDB3
:1035D40010B51921012200F053FE00F0F1FD01287D
:1035E40004460AD00548FFF7A7FEA0B2FFF763FF21
:1035F400BDE810400248FFF79FBE10BD8863000875
:103604008363000810B51921002200F039FE00F090
:10361400D7FD012804460AD00548FFF78DFEA0B265
:10362400FFF749FFBDE810400248FFF785BE10BD13
:10363400886300088363000838B50420154D164CD0
:10364400FFF7E0FF0320FFF7DDFF28464FF40051AA
:1036540001F05BF920464FF4005101F056F9204681
:103664004FF4804101F051F920464FF4004101F03C
:103674004CF928464FF4804101F047F928464FF4AD
:10368400004101F042F92046BDE838404FF4805132
:1036940001F03BB900100140000C014010B50C468C
:1036A400202100F0FFFD206000F08AFD012804467F
:1036B4000AD00648FFF740FEA0B2FFF7FCFEBDE8C3
:1036C40010400348FFF738BE10BD00BF99630008DF
:1036D4008363000810B50C46242100F0E3FD20604C
:1036E40000F06EFD012804460AD00648FFF724FEC8
:1036F400A0B2FFF7E0FEBDE810400348FFF71CBE90
:1037040010BD00BF996300088363000873B50E46BB
:10371400044601A901201546FFF7DCFF6946022093
:10372400FFF7D8FF0099891B0A31142906D8019B99
:103734005B1B0A33142B9CBF0123236002B070BDB2
:1037440073B50E46044601A901201546FFF7C2FFD2
:1037540069460220FFF7BEFF0099891B11F10A0F89
:103764000ADB0A2908DC019B5A1B12F10A0F03DB4E
:103774000A2ADCBF0023236002B070BD10B50C46DA
:10378400202100F069FD207000F01AFD0128044694
:103794000AD00648FFF7D0FDA0B2FFF78CFEBDE8C3
:1037A40010400348FFF7C8BD10BD00BF996300086F
:1037B4008363000810B50C46212100F04DFD2070F4
:1037C40000F0FEFC012804460AD00648FFF7B4FDC9
:1037D400A0B2FFF770FEBDE810400348FFF7ACBD90
:1037E40010BD00BF996300088363000838B50D4617
:1037F4001A2100F031FD287000F0E2FC04460B4869
:10380400FFF79AFD2878FFF756FE0948FFF794FD65
:10381400012C0AD00748FFF78FFDA0B2FFF74BFE3B
:10382400BDE838400248FFF787BD38BDA9630008EA
:10383400836300089963000810B50C461B2100F04F
:103844000BFD207000F0BCFC012804460AD0064899
:10385400FFF772FDA0B2FFF72EFEBDE8104003484B
:10386400FFF76ABD10BD00BF9963000883630008B9
:1038740010B50C461C2100F0EFFC207000F0A0FCF9
:10388400012804460AD00648FFF756FDA0B2FFF708
:1038940012FEBDE810400348FFF74EBD10BD00BF47
:1038A400996300088363000810B50C461D2100F0DD
:1038B400D3FC207000F084FC012804460AD006489A
:1038C400FFF73AFDA0B2FFF7F6FDBDE8104003484C
:1038D400FFF732BD10BD00BF996300088363000881
:1038E40010B50C461E2100F0B7FC207000F068FCF7
:1038F400012804460AD00648FFF71EFDA0B2FFF7D0
:10390400DAFDBDE810400348FFF716BD10BD00BF47
:10391400996300088363000810B50C461F2100F06A
:103924009BFC207000F04CFC012804460AD0064899
:10393400FFF702FDA0B2FFF7BEFDBDE8104003484B
:10394400FFF7FABC10BD00BF996300088363000849
:1039540010B50C46232100F0A5FC206000F030FCDB
:10396400012804460AD00648FFF7E6FCA0B2FFF798
:10397400A2FDBDE810400348FFF7DEBC10BD00BF48
:10398400996300088363000810B50A46282100F0F3
:1039940077FC00F015FC012804460AD00548FFF71F
:1039A400CBFCA0B2FFF787FDBDE810400248FFF74B
:1039B400C3BC10BD996300088363000838B505468D
:1039C4000C4628462921224600F05AFC00F0F8FB58
:1039D4000128F6D138BD10B588B001A801F08BFDDF
:1039E40004A801F091FD4FF0804001F0FDFB4FF67B
:1039F400FF73002401A94FF08040ADF80830ADF802
:103A04000440ADF80A40ADF8064001F051FC012233
:103A14004FF0804040F2D22101F012FE104B04A975
:103A24001B884FF08040ADF81630ADF81040ADF86B
:103A34001240ADF8184001F059FC21464FF0804087
:103A440001F083FE01224FF08040022101F091FD3C
:103A54004FF08040012101F072FD08B010BD00BF9D
:103A64000000002010B54FF08040022102F099F8C8
:103A7400E8B102214FF0804002F09EF84FF0804000
:103A840002F072F80A4C0B4BC4F80401D4F8041188
:103A94001B884FF08040194489B201F092FFD4F89A
:103AA400083123B1D4F80831013BC4F8083110BD02
:103AB400180000200000002038B5094840F22551C4
:103AC40002F0F9F958B1074D05482B78DCB2631CB4
:103AD400DBB22B7002F08EF92C44C0B2A07038BD5A
:103AE400003801401800002008B542F2283001F0E7
:103AF4000BFBBDE80840012001F020BB044BD3F8C8
:103B04000C2122B1D3F80C21013AC3F80C217047DF
:103B14001800002010B50446012001F0FBFA084B00
:103B2400C3F80C41D3F80C41002CFBD16FF0010019
:103B340001F0F0FA2046BDE8104001F0EBBA00BFF6
:103B44001800002070B50C460546FE211646FFF706
:103B540035FF21462846FFF717FF0024B44204DA54
:103B64000120FFF7D7FF0134F8E72846BDE870408D
:103B74000021FFF723BF08B5642013217D22FFF73E
:103B8400E1FF642010217D22FFF7DCFF1021FA22DF
:103B94006420FFF7D7FF4FF4FA70FFF7BBFF6420F0
:103BA4000E217D22FFF7CEFF642010217D22FFF736
:103BB400C9FFBDE8084064201321FA22FFF7C2BF01
:103BC40008B516217D226420FFF7BCFF7D20FFF796
:103BD400A1FF642018217D22FFF7B4FF14217D2268
:103BE4006420FFF7AFFF7D20FFF794FF16214FF409
:103BF400FA726420FFF7A6FF7D20FFF78BFF1921DF
:103C04007D226420FFF79EFF7D20FFF783FF642061
:103C140018217D22FFF796FF14217D226420FFF7EF
:103C240091FF7D20FFF776FF642016214FF4FA728E
:103C3400FFF788FFBDE808407D20FFF76BBF10B594
:103C440002243A48FFF778FB0420FFF7C1FC032065
:103C5400FFF7BEFC3648FFF76FFB36484FF40051C0
:103C640000F053FE4FF40051334800F050FE64203E
:103C7400FFF750FF30484FF4005100F046FE4FF478
:103C840080412D4800F043FE6420FFF743FF2A489B
:103C94004FF4804100F039FE4FF40041264800F013
:103CA40036FE6420FFF736FF23484FF4004100F04E
:103CB4002CFE4FF480411F4800F029FE6420FFF7DA
:103CC40029FF1C484FF4804100F01FFE4FF40041CF
:103CD400184800F01CFE6420FFF71CFF15484FF441
:103CE400004100F012FE4FF48051134800F00FFE23
:103CF4006420FFF70FFF10484FF4805100F005FED9
:103D04004FF400510B4800F002FE6420FFF702FF5D
:103D14000A48FFF711FB0420FFF774FC0320FFF7A8
:103D240071FC012C01D001248BE710BDB4630008A1
:103D3400C863000800100140000C0140D163000872
:103D440070B515460E4604464FF42F710420FFF754
:103D5400BCFB07490320FFF7B8FB4FF47A70FFF769
:103D6400D9FE30462946FFF71BFC0323236070BDB0
:103D740044FDFFFF38B50D4604466420FFF736FDC9
:103D84002B78A34215DBFFF757FC4FF48041094819
:103D940000F0BDFD0848FFF7B5FB4FF47A70FFF75C
:103DA400B9FEFFF7BEFBBDE838404FF47A70FFF769
:103DB400B1BE38BD0010014001FCFFFF30B50D4617
:103DC400044685B0684601F089FF0023ADF804304D
:103DD400ADF80630ADF80830ADF80C300C23009582
:103DE400ADF80A308CB9124801F0EAFE0A20FFF758
:103DF40091FE0F48694601F02DFF0D4840F2255110
:103E0400012201F098FF0A480CE0022C0DD1094868
:103E140001F0D6FE0A20FFF77DFE0648694601F050
:103E240019FF0448012101F07AFF05B030BD00BF3D
:103E3400003801400048004008B5FFF779F9FFF762
:103E4400B9F9FFF7DEF9FFF74FFEFFF7C4FD0121D3
:103E5400002000F097F8034B02205968BDE80840A1
:103E6400FFF7ACBF0000002001460020FFF7A6BF0B
:103E7400014BC3F80801704718000020034BD3F826
:103E84000801B0FA80F04009704700BF1800002014
:103E94007047FEE7FEE7FEE7FEE7704770477047AE
:103EA400FFF72CBE704770477047704770477047E4
:103EB4007047704770477047704770477047704746
:103EC4007047704770477047704770477047704736
:103ED400704770477047704770477047FFF7C2BD1F
:103EE4007047704770477047704770477047704716
:103EF400FFF7E2BD704770477047704770477047DF
:103F040070477047704770477047704770477047F5
:103F140070477047704770477047704770477047E5
:103F240008B50846FFF7A0FF012008BDFFF7ACB9AC
:103F3400FFF7B0B970B506460C4600235D1CDBB232
:103F4400A34204DAF05CFFF7B7F92B46F6E7204604
:103F540070BDF8B507460E460024E5B2B54207DA4F
:103F6400FFF7A0F9013420B1FFF7C8F97855F4E759
:103F740035462846F8BD64235843FFF779BFFFF759
:103F84007DBF000008B5074B013193FBF1F1FFF74A
:103F9400C7FF28B1044B01201860044B00221A60AB
:103FA40008BD00BF80841E001400002030010020E2
:103FB400FFF7BCBF70B5244C2368012B43D0E279D2
:103FC4000123982A236005D9204B04221A60002378
:103FD400236070BD237A591E052901D9832BF3D19F
:103FE400FF230020237163710346C1B28A4200F1AA
:103FF400010004DB214489790B44DBB2F5E7DB43A0
:10400400124D2244D3712B68063B012B01D8FFF7D4
:104014008FFFE4790C4E0434E4B2301D2146FFF7DF
:1040240089FFC0B2844204D002232B600023336092
:1040340070BD337A022B0ABFB07A06200630FFF730
:104044009AFF00232B6070BD300100201400002073
:10405400F8B5514C2368002B00F09C80A3794F4E97
:10406400FE2B01D1012333E0336823B984F8A43053
:10407400062384F8A530484D94F8A43094F8A5108C
:1040840005F1A607F818C91AFFF763FF94F8A430DE
:10409400184494F8A530C0B2834284F8A4001BD914
:1040A400FFF76DFF012817D195F8A4307BB90623DB
:1040B4000EE084F8A45094F8A41094F8A530364D7A
:1040C4008B424DD8AA7995F8A8309A4232D007236A
:1040D400336000232360F8BD94F8A4100022481E26
:1040E400A1F1020ED3B2834209DAE51895F8A6C00D
:1040F400BCF1FF0F07D195F8A750FF2D03D1002B7A
:10410400D9D0002008E0734504D1251895F8A650AD
:10411400FF2DF4D00132E5E7C2B2CD1AAA4200F174
:104124000100C6DAE518154495F8A650224482F831
:10413400A650F1E795F8A9300433DBB2994285F82B
:10414400A53010D27818591AFFF703FF95F8A43058
:10415400184495F8A530C0B2834285F8A40002D96A
:1041640005233360F8BD0020034694F8A920C1B2AA
:104174008A4200F1010005DB214491F8A8100B44A8
:10418400DBB2F4E7DB43224492F8A920DBB29A4283
:104194009DD167E7F8BD00BF300100201400002066
:1041A40010B5FFF707FF054B1A681C4622B9FFF745
:1041B4004FFF2368052BFAD010BD00BF1400002068
:1041C400014B1868704700BF14000020014B987120
:1041D400704700BF30010020014B1872704700BFC8
:1041E40030010020014B1844417270473001002017
:1041F400014BD871704700BF30010020034B93F886
:10420400AA30184214BF012000207047300100205A
:10421400014B93F8A900704730010020024B184469
:1042240090F8AB00704700BF3001002000EB012084
:1042340080B27047C0B27047C0F307207047054B87
:104244001A68002AFDD101221A7202229871DA71C9
:10425400FFF7A6BF3001002010B5084C2368002BDF
:10426400FDD1022323720123A3720423A07161727E
:10427400E371FFF795FF94F8AB0010BD3001002007
:10428400074B10B51C68002CFDD198719A7203205D
:10429400042218725972DA71BDE81040FFF780BF2A
:1042A4003001002010B50A4C2368002BFDD10223F5
:1042B4002372A3720423A071E3716172FFF770FF8C
:1042C40094F8AC0094F8AB3003EB002080B210BD3E
:1042D40030010020094B10B51C68002CFDD19A72E6
:1042E400C2F307229871DA720320052218725972F8
:1042F400DA71BDE81040FFF753BF00BF3001002062
:10430400044B1A6802F038021A601A6810431860E5
:10431400704700BF00200240044B1A6822F00802D4
:104324001A601A6810431860704700BF00200240EA
:10433400044B1A6822F010021A601A6810431860BD
:10434400704700BF00200240034B044A5A6002F148
:1043540088325A60704700BF00200240230167453D
:10436400024A136943F0800313617047002002403E
:10437400014BD8698008704700200240014B186A3D
:10438400704700BF00200240024BD869C0F34000D0
:10439400704700BF00200240024B1868C0F3401071
:1043A400704700BF00200240044B1A6909B1104352
:1043B40001E022EA00001861704700BF00200240BB
:1043C4000128064B03D1D86900F001007047DB686F
:1043D400184214BF01200020704700BF0020024093
:1043E400014BD860704700BF00200240084BDA68D8
:1043F400D10709D4DA68520708D4DB6813F0100F28
:1044040014BF032004207047012070470220704726
:104414000020024013B50446FFF7E8FF01280FD13E
:1044240064B100230193FF230193019B13B1019B0A
:10443400013BF9E7FFF7DAFF013CEFE7052002E073
:10444400002C08BF052002B010BD38B5054640F663
:10445400FF70FFF7DFFF042814D10B4C40F6FF7008
:10446400236943F0020323616561236943F0400338
:104474002361FFF7CFFF01281FBF41F6FD732269B7
:104484001340236138BD00BF0020024010B540F640
:10449400FF70FFF7BFFF042813D10A4C40F6FF70EA
:1044A400236943F004032361236943F04003236138
:1044B400FFF7B0FF01281FBF41F6FB7322691340C9
:1044C400236110BD0020024010B540F6FF70FFF7D5
:1044D400A1FF042829D1154C154B40F6FF70A360A9
:1044E40003F18833A360236943F020032361236924
:1044F40043F040032361FFF78DFF04280ED141F6FA
:10450400DF7322690F20134023612369A52243F03E
:1045140010032361074B1A80FFF77CFF01281FBF9C
:1045240041F6EF7322691340236110BD002002405D
:104534002301674500F8FF1F70B506460F200D469E
:10454400FFF768FF042817D10C4C0F20236943F0B0
:1045540001032361ABB23380FFF75CFF042804D16D
:104564002D0C75800F20FFF755FF01281FBF41F662
:10457400FE7322691340236170BD00BF0020024016
:1045840070B505460F200E46FFF744FF04280FD1EF
:10459400084C0F20236943F0010323612E80FFF7A9
:1045A40039FF01281FBF41F6FE73226913402361BE
:1045B40070BD00BF0020024070B506460F200D46B6
:1045C400FFF728FF042815D10B4C0C4BADB2A360A8
:1045D40003F18833A36023690F2043F010032361A0
:1045E4003580FFF717FF01281FBF41F6EF732269DB
:1045F4001340236170BD00BF0020024023016745C2
:1046040010B504460F20FFF705FF042841D1E44309
:10461400204B214AE1B29A6002F188329A601A6909
:10462400FF2942F010021A6104D1C4F30723FF2BBF
:1046340008D10FE0194B0F201981FFF7EBFE042876
:104644001FD1F2E7154A9BB253810F20FFF7E2FE18
:10465400042816D1C4F30743FF2B07D00F4A9BB29B
:1046640093810F20FFF7D6FE04280AD1240EFF2CD5
:1046740001D1042007E0094BA4B2DC810F20FFF72D
:10468400C9FE012805D041F6EF73024A11690B40B7
:10469400136110BD002002402301674500F8FF1F8D
:1046A40038B5054640F6FF70FFF7B4FE042836D14E
:1046B4001B4C1C4B40F6FF70A36003F18833A360CE
:1046C400236943F020032361236943F040032361FA
:1046D400FFF7A0FE04281BD141F6DF7322691340C3
:1046E4002361236943F0100323610F4B0DB10022B2
:1046F40000E0A5221A8040F6FF70FFF78BFE012828
:104704000DD041F6EF73064A11690B40136138BDB1
:1047140001281FBF41F6DF7322691340236138BDAE
:10472400002002402301674500F8FF1FF8B5114D32
:10473400114B0646AB6003F18833AB600F200F4684
:104744001446FFF767FE042813D12B6944F0F800E0
:1047540043F010032B613843084B304358800F203B
:10476400FFF758FE01281FBF41F6EF732A69134073
:104774002B61F8BD002002402301674500F8FF1FAC
:1047840008B5264B98422FD011D8A3F50063984260
:104794001ED003F58063984220D0A3F500639842AD
:1047A4003AD10420012100F035FC04202FE01C4BF9
:1047B40098421FD003F58063984221D0A3F500638B
:1047C400984229D14020012100F024FC40201EE021
:1047D4000820012100F01EFC082018E0102001210F
:1047E40000F018FC102012E02020012100F012FC3F
:1047F40020200CE08020012100F00CFC802006E049
:104804004FF48070012100F005FC4FF4807000210A
:10481400BDE8084000F0FEBB08BD00BF0014014025
:10482400001C014008B50120014600F0F3FBBDE87F
:1048340008400120002100F0EDBBCA78F0B5D40691
:1048440048BF8C780D8802F00F0348BF234315F04E
:10485400FF0F1DD0016800240126A64006EA0507C3
:10486400B74211D14FEA840E0F2606FA0EF621EA5A
:104874000601282A03FA0EF641EA060101D147612E
:1048840002E0482A08BF07610134082CE4D1016022
:10489400FF2D1FD94168002404F108070126BE40FA
:1048A40006EA0507B74211D14FEA840E0F2606FA2D
:1048B4000EF621EA0601282A03FA0EF641EA060159
:1048C40001D1476102E0482A08BF07610134082C7E
:1048D400E2D14160F0BD4FF6FF7303800223837081
:1048E4000423C37070478368194214BF0120002059
:1048F4007047806880B27047C368194214BF0120B2
:1049040000207047C06880B2704701617047416100
:1049140070470AB10161704741617047C1607047D7
:1049240041F4803383618161836183698369704762
:10493400054A136823F07F031B041B0C194341EA47
:1049440000101060704700BF00000140014B186068
:10495400704700BF1C00204230B5134C00F44015D2
:10496400B5F5401F636882B206D1656823F07063B1
:1049740025F0706565600EE0C40255BF440D032444
:104984002401C0F303454CBFAC4002FA04F423EA0B
:10499400040343F0706319B1400D000182401343D6
:1049A400014A536030BD00BF0000014001F0030321
:1049B40001F0FC0101F1804101F5803110B59B004B
:1049C4008C680F229A4024EA02028A608A6898401E
:1049D40002438A6010BD00BF0B4B6FF070424FF072
:1049E400FF31C3F88010C3F88420C3F88011C3F8E2
:1049F4008421002202F1C001013200200F2A43F871
:104A04002100F7D1704700BF00E100E0094B4FF0EF
:104A1400206209495A6000229A60D9601A615A6179
:104A24009A61DA611A625A624FF0FF329A62DA626C
:104A34001A63704700ED00E00000FA0540F0BF6023
:104A4400024B40F40030D860704700BF00ED00E036
:104A5400C27830B5037872B31C4A03F00305D468F6
:104A64004278E443C4F30224C4F1040102FA01F1DC
:104A74000F22E240847803F0FC03224003F16043F8
:104A840003F561430A43D3F80043ED001201FF210B
:104A9400A940AA4024EA01040A402243C3F800239F
:104AA40003780122590903F01F0302FA03F3084AA9
:104AB40042F8213030BD5A09012103F01F03994007
:104AC40002F12003024A42F8231030BD00ED00E059
:104AD40000E100E00023037043708370C3707047EB
:104AE40001F035BA01F035BA01F035BA01F035BA42
:104AF400000101F034BA01F035BA024B5868C0F332
:104B04000930704700ED00E000F01F0301229A40D5
:104B140004494309403351F823001040831A584292
:104B24005841704700E100E0014B1860704700BF36
:104B340000EF00E04309012200F01F000249824017
:104B4400603341F82320704700E100E0024B5868CD
:104B5400C0F30900704700BF00ED00E000F01F0340
:104B640001229A4004494309803351F8230010403C
:104B7400831A58425841704700E100E0014B18681D
:104B8400704700BF00ED00E021F0604121F07F019B
:104B9400014B08439860704700ED00E0014A024B66
:104BA400DA6070470400FA0500ED00E0014A024BA8
:104BB400DA6070470100FA0500ED00E0044B1A6961
:104BC40009B1104301E022EA00001861704700BFF8
:104BD40000ED00E000F01F0001228240044B11B1FF
:104BE400596A0A4302E0596A21EA02025A6270478A
:104BF40000ED00E0114B10B5DB68DB43C3F3022387
:104C0400C3F10404A140FF2424FA03F31A40C0F3BF
:104C14000123C0F38110800000F1604000F56D4075
:104C24001143DB0082699C4022EA040484618269A6
:104C3400090199401143816110BD00BF00ED00E0FE
:104C4400054AC0F3832001238340506A1840C31AE5
:104C540058425841704700BF00ED00E0044900F09D
:104C64001F004B680122824013434B60704700BF12
:104C740000ED00E0044900F01F004B6801380122F8
:104C8400824013434B60704700ED00E0054AC0F3D7
:104C9400833001238340506A1840C31A5842584154
:104CA400704700BF00ED00E0C0F38143094A0BB92F
:104CB400D06A7047012B0AD1C0F30153906ADA001D
:104CC400D040022B14BF00F00F00C0B27047106B2D
:104CD400704700BF00ED00E0034B10F4800F0CBFE1
:104CE400586B986B704700BF00ED00E008B54FF0BB
:104CF4008050012100F09AF9BDE808404FF080503F
:104D0400002100F093B9014B1860704720000E4257
:104D1400014B1860704700BF10000E42034A13682D
:104D240023F0E00318431060704700BF0070004098
:104D3400014B1860704700BFA0000E42084A0129C9
:104D4400136823F0030340EA03001060054A136864
:104D540043F00403136001D101F0D4B801F0D4B8D6
:104D64000070004010ED00E0074B1A6842F00402A6
:104D74001A601A6842F002021A60044A136843F087
:104D84000403136001F0BEB80070004010ED00E0B1
:104D9400034B5B68184214BF01200020704700BF1A
:104DA40000700040024A136843EA800010607047B4
:104DB400007000400C4B1A6842F001021A605968F6
:104DC4000A4A0A405A601A6822F0847222F4803235
:104DD4001A601A6822F480221A605A6822F4FE02C9
:104DE4005A6000229A607047001002400000FFF8E9
:104DF4000C4BB0F5803F1A6822F480321A601A68AE
:104E040022F480221A6003D0B0F5802F04D07047BA
:104E14001A6842F4803202E01A6842F4A0221A604E
:104E2400704700BF00100240034A136823F0F803E0
:104E340043EAC0001060704700100240014B186044
:104E4400704700BF00004242034A536823F47C13B6
:104E5400194308435060704700100240014B18602A
:104E6400704700BF60004242034A536823F00303C3
:104E740018435060704700BF00100240024B58684E
:104E840000F00C00704700BF00100240034A536852
:104E940023F0F00318435060704700BF0010024035
:104EA400034A536823F4E06318435060704700BF1B
:104EB40000100240034A536823F4605343EAC000DD
:104EC4005060704700100240044B1A7809B1104337
:104ED40001E022EA00001870704700BF0910024088
:104EE400014B1860704700BFD8004242034A536820
:104EF40023F4404318435060704700BF0010024041
:104F0400064B002201281A701A7002D0042802D01D
:104F140070471870704705221A70704720100240BD
:104F2400014B1860704700BF80044242024A136A72
:104F340018431062704700BF00100240014B186014
:104F4400704700BF3C0442421C4A10B5536803F04A
:104F54000C03042B01D0082B01D0194B0EE053682D
:104F64005168C3F38343CC0303F1020302D55168B0
:104F7400890301D5134900E011494B430360536889
:104F84001149C3F30313CC5C0368E34043605468E2
:104F9400C4F302240C5D23FA04F484605468C4F35B
:104FA400C2240C5DE340C3605268C2F381320A44F8
:104FB400127CB3FBF2F3036110BD00BF001002408A
:104FC40000127A0000093D0070610008044B5A6920
:104FD40009B1104301E022EA00005861704700BFA4
:104FE40000100240044B9A6909B1104301E022EA1F
:104FF40000009861704700BF00100240044BDA695A
:1050040009B1104301E022EA0000D861704700BFF3
:1050140000100240044BDA6809B1104301E022EAAF
:105024000000D860704700BF00100240044B1A69AA
:1050340009B1104301E022EA00001861704700BF83
:1050440000100240014B1860704700BF4004424208
:10505400014B1860704700BF4C004242014B18706E
:10506400704700BF071002404209012A074B01D1D3
:105074001B6803E0022A0CBF1B6A5B6A00F01F0076
:1050840023FA00F000F00100704700BF0010024056
:1050940007B5002301933120FFF7E6FF019B01339D
:1050A400019318B9019BB3F5A06FF4D13120FFF738
:1050B400DBFF003018BF012003B05DF804FB034A96
:1050C400536A43F080735362704700BF001002407C
:1050D400034B9B68184214BF01200020704700BF97
:1050E40000100240014B1870704700BF0A100240C4
:1050F400044B04281A680CBF42F0040222F0040294
:105104001A60704710E000E0014B5860704700BF20
:1051140010E000E00128084B03D11A6842F00102B4
:1051240004E0023004D11A6822F001021A607047C8
:1051340000229A60704700BF10E000E0044B1A6838
:1051440010B142F0020201E022F002021A6070473C
:1051540010E000E0014B9868704700BF10E000E0E9
:10516400C308022B044B0CBF1B68DB6823FA00F056
:1051740000F00100704700BF10E000E030B5048C7F
:1051840024F001042404240C0484048B058CA4B2AC
:10519400ADB224F0F304224325F0020542EA0313DE
:1051A40045F001059AB229430283018430BD30B52C
:1051B400048C24F010042404240C0484058B048C33
:1051C40025F44075A4B22D052D0D24F0200444F0DF
:1051D400100445EA022242EA033344EA01119BB275
:1051E4008CB20383048430BD08B52E4B98423AD068
:1051F40010D8A3F50063984225D003F58063984244
:105204002BD0B0F1804F4CD101200146FFF70EFFA7
:1052140001201DE0244B984231D004D8A3F58063CB
:10522400984226D008BD214B984204D003F5006370
:1052340098422AD008BD4FF400600121FFF7EAFE2E
:105244004FF4006028E002200121FFF7EFFE022066
:105254000021BDE80840FFF7E9BE04200121FFF763
:10526400E5FE0420F4E708200121FFF7DFFE082013
:10527400EEE710200121FFF7D9FE1020E8E72020F7
:105284000121FFF7D3FE2020E2E74FF40050012173
:10529400FFF7C0FE4FF400500021BDE80840FFF7BF
:1052A400B9BE08BD000C004000140040002C0140B1
:1052B4000388CA8803F08F03038003889BB21343D7
:1052C4004A8813439BB203808B8883850B880385AC
:1052D40001238382044B984203D003F50063984270
:1052E40001D10B7A03867047002C0140038C70B502
:1052F40023F001031B041B0C0384038C8488028B9E
:105304000E8822F070021204120C23F002051643D8
:105314004B880A892D041343CA882D0C82860F4AB0
:105324002B439042A4B29BB203D002F50062904298
:105334000FD147F6FF454A8923F0080313438A88AF
:1053440023F0040325401343CC898A8914432C4356
:10535400A4B284800683038470BD00BF002C014086
:10536400038C30B523F010031B041B0C0384038C43
:105374008588028B0C8822F4E0421204120C42EA63
:10538400042223F0200394B21B040A891B0C43EA71
:1053940002134A88ADB243EA0213CA889BB2028759
:1053A400104A904203D002F50062904216D123F0D5
:1053B40080034A899BB243EA02124FF6BF7313403B
:1053C4008A8843EA021347F2FF322A408D899BB24E
:1053D40042EA8502CD8942EA8505ADB2858004831F
:1053E400038430BD002C0140038C70B523F480731A
:1053F4001B041B0C0384038C8488828B0E8822F08C
:1054040070021204120C23F4007316431B040A895D
:105414001B0C43EA02234A88A4B243EA0223CA8843
:105424009BB28287104A904203D002F500629042F8
:1054340016D123F400634A8944F6FF759BB243EA0C
:1054440002224FF6FF3325408C89134045EA0415A8
:105454008A88CC8943EA022345EA04149BB2A4B2A5
:1054640084808683038470BD002C0140038C30B596
:1054740023F480531B041B0C0384038C8488828BC9
:105484000D8822F4E0421204120C23F4005342EA81
:1054940005221B040D891B0C43EA05334D88A4B275
:1054A40043EA0533CD8892B2A0F84050084D9BB230
:1054B400A84203D005F50065A84205D18989C4F343
:1054C4000D0444EA8114A4B284808283038430BD31
:1054D400002C01404A880B8813438A881343CA88E6
:1054E40013430A8913434A8913438A8913439BB29A
:1054F400A0F8443070474FF6FF7383800023038085
:10550400C3804380037270470023038043808380F9
:10551400C380038143818381C381704700230122B7
:10552400038043808280C38003817047002303800B
:1055340043808380C38003814381838170470388D0
:1055440019B19BB243F0010303E023F001039B056F
:105554009B0D03807047B0F8443029B16FEA434390
:105564006FEA53439BB201E0C3F30E03A0F8443047
:10557400704783899BB20AB1194301E023EA010110
:1055840081817047818270470A43A0F848207047A0
:1055940083899BB20AB1194301E023EA01018181A5
:1055A4007047038923F007031B041B0C0381704716
:1055B400038923F070031B041B0C19430181038925
:1055C4009BB243F007030381704738B50D46602D45
:1055D400114604464FF0010202D1FFF7E8FD01E055
:1055E400FFF7CCFD218921F070010904090C29433E
:1055F400218123899BB243F00703238138BD10B571
:10560400048942EA0323E4B223439BB21943018190
:1056140010BD10B50446FFF7F2FF238923F077038A
:105624001B041B0C43F07703238110BD10B5044603
:10563400FFF7E5FF23899BB243F48043238110BD28
:10564400018582827047038823F070039B059B0DBC
:10565400194301807047038923F070031B041B0C5A
:1056640019430181704770B50689048B058C24F4B5
:105674004074ADB224F0030425F0220526F0070699
:1056840024042A433604240C360C44F4807442EA7D
:105694000313314344F001049DB201810483058462
:1056A40070BD038B23F070031B041B0C194301838F
:1056B4007047038B23F4E0431B041B0C43EA0121D2
:1056C40089B201837047838B23F070031B041B0C86
:1056D400194381837047838B23F4E0431B041B0C21
:1056E40043EA012189B281837047038819B19BB2CF
:1056F40043F0800303E023F080039B059B0D0380AC
:105704007047838819B19BB243F0040303E023F08C
:1057140004031B041B0C83807047838819B19BB25C
:1057240043F0080303E023F008031B041B0C8380ED
:105734007047838819B19BB243F0010303E023F05F
:1057440001031B041B0C83807047038B23F00803A5
:105754001B041B0C194301837047038B23F4006360
:105764001B041B0C43EA012189B201837047838B1C
:1057740023F008031B041B0C194381837047838B9C
:1057840023F400631B041B0C43EA012189B28183C7
:105794007047038B23F004031B041B0C1943018380
:1057A4007047038B23F480631B041B0C43EA012121
:1057B40089B201837047838B23F004031B041B0C01
:1057C400194381837047838B23F480631B041B0C70
:1057D40043EA012189B281837047038B23F080035C
:1057E4001B041B0C194301837047038BC3F30E0383
:1057F40043EA012189B201837047838B23F080033C
:105804001B041B0C194381837047838BC3F30E0362
:1058140043EA012189B281837047038C23F0020398
:105824001B041B0C194301847047038C23F00803E9
:105834001B041B0C194301847047038C23F02003C1
:105844001B041B0C43EA011189B201847047038CC9
:1058540023F080031B041B0C43EA011189B2018469
:105864007047038C23F400731B041B0C43EA0121CF
:1058740089B201847047038C23F400631B041B0C5E
:1058840043EA012189B201847047038C23F4005355
:105894001B041B0C43EA013189B201847047038C59
:1058A40010B59CB201238B4024EA03030384038CC8
:1058B4008A4013439BB2038410BD038C10B59CB281
:1058C40004238B4024EA03030384038C8A40134398
:1058D4009BB2038410BD038C10B59CB201238B4092
:1058E40024EA0303038421F0080318303BB94FF67C
:1058F4008F73490844582340435043580AE048F6FC
:10590400FF730439C1F34E0144581202234043503B
:10591400435892B21A43425010BD038819B19BB246
:1059240043F0020303E023F002039B059B0D038075
:105934007047038819B19BB243F0040303E023F0DA
:1059440004039B059B0D03807047838819B19BB2A8
:1059540043F0800303E023F080031B041B0C8380CB
:105964007047038823F008039B059B0D038003887D
:105974009BB2194301807047838823F070031B0492
:105984001B0C838083889BB21943818070470389F1
:1059940023F007031B041B0C038103899BB21943E7
:1059A40001817047038923F080031B041B0C0381CE
:1059B40003899BB2194301817047818470478185B3
:1059C4007047818670470187704781877047A0F8C8
:1059D40040107047038B23F00C031B041B0C038340
:1059E400038B9BB2194301837047038B23F44063F9
:1059F4001B041B0C0383038B9BB243EA012189B272
:105A040001837047F8B50C464988A2880029B4F888
:105A140000E00CBF02270027012A05460CBF02261E
:105A240001262389BEF1000F11D1FFF7A7FB2846F9
:105A3400E188FFF7CFFF2846394632462389FFF72E
:105A4400B6FB2846E188BDE8F840FFF7CEBFFFF774
:105A5400AEFB2846E188FFF7C8FF284639463246A0
:105A64002389FFF78BFB2846E188BDE8F840FFF760
:105A7400B1BF838B23F00C031B041B0C8383838B28
:105A84009BB2194381837047838B23F440631B04C7
:105A94001B0C8383838B9BB243EA012189B28183EC
:105AA4007047F8B50D460E8804464988AA882B89A4
:105AB4003EB9FFF763FB2046E988BDE8F840FFF7ED
:105AC40089BF042E07D1FFF772FB2046E988BDE8A1
:105AD400F840FFF78ABF082EB5F806E0058C1CD104
:105AE40025F480752D042D0C0584878B068CBFB29C
:105AF400B6B227F0F30726F4007647EA031346EA22
:105B040001269FB2B6B23A4346F480768283714648
:105B14000684BDE8F840FFF7ACBF25F480552D049A
:105B24002D0C0584868B078C26F440752D05BFB299
:105B34002D0D45EA022527F4005242EA013245EAD6
:105B4400033392B29BB242F4805283837146BDE820
:105B5400F8400284FFF798BF0388DBB20380038810
:105B64009BB2194301807047808E80B27047008FCA
:105B740080B27047808F80B27047B0F8400080B226
:105B84007047808C80B27047008D80B27047038A62
:105B9400194214BF012000207047C94389B2018211
:105BA4007047038A828911EA030092B203D011423A
:105BB40014BF012000207047C94389B20182704795
:105BC40008B5224B98422CD008D8A3F5006398421C
:105BD40017D003F5806398421BD008BD1C4B984234
:105BE40027D003F5684398422FD14FF48040012118
:105BF400FFF710FABDE808404FF480400021FFF79A
:105C040009BA4FF400300121FFF710FA4FF40030C5
:105C140016E04FF480200121FFF708FA4FF48020AA
:105C24000EE04FF400200121FFF700FA4FF40020AA
:105C340006E04FF480100121FFF7F8F94FF48010CB
:105C44000021BDE80840FFF7F1B908BD004C004051
:105C54000050004030B50D460446038ACA889BB202
:105C640023F440531343038282890989AB8892B297
:105C74000B43698922F4B0520B4322F00C02134304
:105C84009BB28381838AAA899BB223F4407387B031
:105C94001343838201A8FFF757F9039B049A0E4923
:105CA4008C4218BF1A46192353432A689200B3FB47
:105CB400F2F26423B2FBF3F00001010903FB1122A9
:105CC40012013232B2FBF3F303F00F0303439BB22E
:105CD400238107B030BD00BF003801404FF4165394
:105CE40003600C2200238380C3800381428183816B
:105CF40070470B8810B54C88028A23438C88C98866
:105D040092B223430B4322F4706213439BB2038287
:105D140010BD0023038043808380C3807047838940
:105D240019B19BB243F4005303E023F400531B0462
:105D34001B0C8381704710B5C1F34214012301F099
:105D44001F01012C03FA01F301D10C3003E0022CF2
:105D54000CBF1030143012B10268134302E0026821
:105D640022EA0303036010BD838A9BB20AB119437C
:105D740001E023EA010181827047038A23F00F03C3
:105D84001B041B0C0382038A9BB2194301827047D4
:105D9400838923F400631B041B0C838183899BB2D6
:105DA400194381817047838919B19BB243F002037F
:105DB40003E023F002031B041B0C83817047038A56
:105DC40023F020031B041B0C0382038A9BB2194398
:105DD40001827047038A19B19BB243F4804303E004
:105DE40023F480431B041B0C03827047C1F3080196
:105DF400818070478088C0F30800704783899BB214
:105E040043F0010383817047038BDBB20383038B6D
:105E14009BB243EA012101837047038B03F47F4360
:105E24000383038B9BB2194301837047838A19B19F
:105E34009BB243F0200303E023F020031B041B0C5C
:105E440083827047838A19B19BB243F0100303E045
:105E540023F010031B041B0C83827047838A19B13F
:105E64009BB243F0080303E023F008031B041B0C5C
:105E740083827047838A23F004031B041B0C8382F0
:105E8400838A9BB2194381827047838A19B19BB27A
:105E940043F0020303E023F002031B041B0C838280
:105EA40070470388194214BF012000207047C9437A
:105EB40089B201807047012310B5C1F3421401F087
:105EC4001F029C4203FA02F201D1838903E0022CEF
:105ED4000CBF038A838A9BB21340028892B23BB1FF
:105EE400090A01238B40134214BF0120002010BD76
:105EF400184610BD090A01238B40DB439BB2038083
:105F0400704700BF30BF704720BF704740BF704725
:105F1400BFF36F8F7047BFF34F8F7047BFF35F8F2F
:105F2400704701DF7047EFF31480704780F31488E3
:105F3400BFF36F8F7047EFF30980704780F30988D0
:105F44007047EFF30880704780F30888704772B693
:105F5400704762B6704771B6704761B6704780F398
:105F640011887047EFF31280704740BA704700BA47
:105F740070470000684620F007018D4601B50C4AC1
:105F84000C4B0D498B4204D252F8041F43F8041BF6
:105F9400F7E70A4B0A4A934203D2002243F8042B40
:105FA400F8E700F00FF8BDE801408546704700BFF0
:105FB400E4630008000000201800002018000020FE
:105FC4001C02002030B587B0FDF736FF0420FDF732
:105FD400BCF90320FDF7B9F904204FF42F71FDF744
:105FE40074FA03204FF42F71FDF76FFA0420002197
:105FF400FDF76BFA03200021FDF767FA0023022066
:1060040002A90193FDF766FB03A90120FDF762FBDA
:10601400FDF7B1FDFDF713FE022004A9FDF75AFBBD
:1060240005A90120FDF756FB049C059DFDF704FB23
:106034004FF400514B48FEF76AFCFDF772FA40F248
:10604400DC50FDF767FD4FF42F70FDF75BFA4FF45A
:10605400FA60FDF75FFDFDF771FA40F2DC50FDF7E1
:1060640059FD40F2FF30FDF74DFA40F2DC50FDF7E8
:1060740051FDFDF763FA40F2DC50FDF74BFD40F2B1
:10608400FF30FDF73FFA40F2DC50963C9635FDF7C1
:1060940041FD019B013B012B04D801A80299039AFD
:1060A400FDF74EFEFDF7C8FA4FF480412D48FEF788
:1060B4002EFCFDF736FA40F2EE20FDF72BFD4FF4EF
:1060C4002F70FDF71FFA64200DF10201FDF7B4FBF8
:1060D400FA200DF10301FDF74DFE9DF80230092B66
:1060E400D7DD21484FF48041FEF711FC4FF4004105
:1060F4001C48FEF70CFC40F2FF30FDF703FA642065
:106104000DF10201FDF798FB019B2BB920462946AE
:10611400FDF746FA02230193019B022B04D101A847
:1061240021462A46FDF7F2FA019B012B04D101A86E
:106134000299039AFDF704FE019B032B04D101A8E5
:106144000299039AFDF7FCFAFA200DF10301FDF719
:1061540011FE9DF80230042BCCBF03230223032B32
:10616400BFD096E7000C0140001001400000000081
:1061740001020304010203040607080902040608D5
:106184000A434D3520696E66696E69746520726FC5
:10619400746174696F6E206D6F6465207365740A31
:1061A400000A434D35206E6F726D616C20726F74FE
:1061B4006174696F6E206D6F6465207365740A0085
:1061C400434F4D4D5F54584641494C3A204661690E
:1061D4006C6564207472616E736D697420696E738A
:1061E4007472756374696F6E207061636B6574217A
:1061F4000A00434F4D4D5F54584552524F523A2076
:10620400496E636F727265637420696E737472751C
:106214006374696F6E207061636B6574210A004357
:106224004F4D4D5F52584641494C3A204661696C86
:10623400656420676574207374617475732070617C
:10624400636B65742066726F6D206465766963653F
:10625400210A00434F4D4D5F525857414954494E0E
:10626400473A204E6F7720726563696576696E6779
:1062740020737461747573207061636B6574210A93
:1062840000434F4D4D5F525854494D454F55543A74
:10629400205468657265206973206E6F2073746181
:1062A400747573207061636B6574210A00434F4DEC
:1062B4004D5F5258434F52525550543A20496E63E1
:1062C4006F72726563742073746174757320706186
:1062D400636B6574210A00546869732069732075BF
:1062E4006E6B6E6F776E206572726F7220636F646F
:1062F40065210A00496E70757420766F6C7461674D
:1063040065206572726F72210A00416E676C6520A8
:106314006C696D6974206572726F72210A004F7620
:10632400657268656174206572726F72210A004F2C
:106334007574206F662072616E6765206572726F76
:1063440072210A00436865636B73756D2065727210
:106354006F72210A004F7665726C6F6164206572FA
:10636400726F72210A00496E737472756374696F77
:106374006E20636F6465206572726F72210A00215A
:1063840021210A000A70726F626C656D2C20636FA4
:1063940064653D3D000A70726F626C656D2C20630C
:1063A4006F64653D0076616C75652069732020001B
:1063B4004D6F746F72206C6967687473206F6E2EF2
:1063C4002E2E0A00626C696E6B21210A004D6F74D7
:1063D4006F72206C6967687473206F46462E2E2E88
:0463E4000A000000AB
:1063E8006400000000E1000001000000FF0300005D
:0863F80040420F00010000000B
:04000005080031348A
:00000001FF
